{
  "_format": "hh-sol-artifact-1",
  "contractName": "Raffle",
  "sourceName": "contracts/Raffle.sol",
  "abi": [
    {
      "inputs": [
        {
          "internalType": "address",
          "name": "vrfCoordinatorV2",
          "type": "address"
        },
        {
          "internalType": "uint256",
          "name": "entranceFee",
          "type": "uint256"
        },
        {
          "internalType": "bytes32",
          "name": "gasLane",
          "type": "bytes32"
        },
        {
          "internalType": "uint64",
          "name": "subscriptionId",
          "type": "uint64"
        },
        {
          "internalType": "uint32",
          "name": "callbackGasLimit",
          "type": "uint32"
        },
        {
          "internalType": "uint256",
          "name": "interval",
          "type": "uint256"
        }
      ],
      "stateMutability": "nonpayable",
      "type": "constructor"
    },
    {
      "inputs": [
        {
          "internalType": "address",
          "name": "have",
          "type": "address"
        },
        {
          "internalType": "address",
          "name": "want",
          "type": "address"
        }
      ],
      "name": "OnlyCoordinatorCanFulfill",
      "type": "error"
    },
    {
      "inputs": [],
      "name": "Raffle__NotEnoughETHEntered",
      "type": "error"
    },
    {
      "inputs": [],
      "name": "Raffle__NotOpen",
      "type": "error"
    },
    {
      "inputs": [],
      "name": "Raffle__TransferFailed",
      "type": "error"
    },
    {
      "inputs": [
        {
          "internalType": "uint256",
          "name": "currentBalance",
          "type": "uint256"
        },
        {
          "internalType": "uint256",
          "name": "numPlayers",
          "type": "uint256"
        },
        {
          "internalType": "uint256",
          "name": "raffleState",
          "type": "uint256"
        }
      ],
      "name": "Raffle__UpkeepNotNeeded",
      "type": "error"
    },
    {
      "anonymous": false,
      "inputs": [
        {
          "indexed": true,
          "internalType": "address",
          "name": "player",
          "type": "address"
        }
      ],
      "name": "RaffleEnter",
      "type": "event"
    },
    {
      "anonymous": false,
      "inputs": [
        {
          "indexed": true,
          "internalType": "uint256",
          "name": "requestId",
          "type": "uint256"
        }
      ],
      "name": "RequestedRaffleWinner",
      "type": "event"
    },
    {
      "anonymous": false,
      "inputs": [
        {
          "indexed": true,
          "internalType": "address",
          "name": "winner",
          "type": "address"
        }
      ],
      "name": "WinnerPicked",
      "type": "event"
    },
    {
      "inputs": [
        {
          "internalType": "bytes",
          "name": "",
          "type": "bytes"
        }
      ],
      "name": "checkUpkeep",
      "outputs": [
        {
          "internalType": "bool",
          "name": "upkeepNeeded",
          "type": "bool"
        },
        {
          "internalType": "bytes",
          "name": "",
          "type": "bytes"
        }
      ],
      "stateMutability": "view",
      "type": "function"
    },
    {
      "inputs": [],
      "name": "enterRaffle",
      "outputs": [],
      "stateMutability": "payable",
      "type": "function"
    },
    {
      "inputs": [],
      "name": "getEntranceFee",
      "outputs": [
        {
          "internalType": "uint256",
          "name": "",
          "type": "uint256"
        }
      ],
      "stateMutability": "view",
      "type": "function"
    },
    {
      "inputs": [],
      "name": "getLatestTimeStamp",
      "outputs": [
        {
          "internalType": "uint256",
          "name": "",
          "type": "uint256"
        }
      ],
      "stateMutability": "view",
      "type": "function"
    },
    {
      "inputs": [],
      "name": "getNumWords",
      "outputs": [
        {
          "internalType": "uint256",
          "name": "",
          "type": "uint256"
        }
      ],
      "stateMutability": "view",
      "type": "function"
    },
    {
      "inputs": [],
      "name": "getNumberOfPlayers",
      "outputs": [
        {
          "internalType": "uint256",
          "name": "",
          "type": "uint256"
        }
      ],
      "stateMutability": "view",
      "type": "function"
    },
    {
      "inputs": [
        {
          "internalType": "uint256",
          "name": "index",
          "type": "uint256"
        }
      ],
      "name": "getPlayer",
      "outputs": [
        {
          "internalType": "address",
          "name": "",
          "type": "address"
        }
      ],
      "stateMutability": "view",
      "type": "function"
    },
    {
      "inputs": [],
      "name": "getRafffleState",
      "outputs": [
        {
          "internalType": "enum Raffle.RaffleState",
          "name": "",
          "type": "uint8"
        }
      ],
      "stateMutability": "view",
      "type": "function"
    },
    {
      "inputs": [],
      "name": "getRecentWinner",
      "outputs": [
        {
          "internalType": "address",
          "name": "",
          "type": "address"
        }
      ],
      "stateMutability": "view",
      "type": "function"
    },
    {
      "inputs": [],
      "name": "getRequestConfirmations",
      "outputs": [
        {
          "internalType": "uint256",
          "name": "",
          "type": "uint256"
        }
      ],
      "stateMutability": "pure",
      "type": "function"
    },
    {
      "inputs": [
        {
          "internalType": "bytes",
          "name": "",
          "type": "bytes"
        }
      ],
      "name": "performUpkeep",
      "outputs": [],
      "stateMutability": "nonpayable",
      "type": "function"
    },
    {
      "inputs": [
        {
          "internalType": "uint256",
          "name": "requestId",
          "type": "uint256"
        },
        {
          "internalType": "uint256[]",
          "name": "randomWords",
          "type": "uint256[]"
        }
      ],
      "name": "rawFulfillRandomWords",
      "outputs": [],
      "stateMutability": "nonpayable",
      "type": "function"
    }
  ],
  "bytecode": "0x6101606040523480156200001257600080fd5b50604051620017c8380380620017c8833981810160405281019062000038919062000294565b858073ffffffffffffffffffffffffffffffffffffffff1660808173ffffffffffffffffffffffffffffffffffffffff1681525050508460a081815250508573ffffffffffffffffffffffffffffffffffffffff1660c08173ffffffffffffffffffffffffffffffffffffffff16815250508360e081815250508267ffffffffffffffff166101008167ffffffffffffffff16815250508163ffffffff166101208163ffffffff16815250506000600160146101000a81548160ff021916908360018111156200010d576200010c62000330565b5b0217905550426002819055508061014081815250505050505050506200035f565b600080fd5b600073ffffffffffffffffffffffffffffffffffffffff82169050919050565b6000620001608262000133565b9050919050565b620001728162000153565b81146200017e57600080fd5b50565b600081519050620001928162000167565b92915050565b6000819050919050565b620001ad8162000198565b8114620001b957600080fd5b50565b600081519050620001cd81620001a2565b92915050565b6000819050919050565b620001e881620001d3565b8114620001f457600080fd5b50565b6000815190506200020881620001dd565b92915050565b600067ffffffffffffffff82169050919050565b6200022d816200020e565b81146200023957600080fd5b50565b6000815190506200024d8162000222565b92915050565b600063ffffffff82169050919050565b6200026e8162000253565b81146200027a57600080fd5b50565b6000815190506200028e8162000263565b92915050565b60008060008060008060c08789031215620002b457620002b36200012e565b5b6000620002c489828a0162000181565b9650506020620002d789828a01620001bc565b9550506040620002ea89828a01620001f7565b9450506060620002fd89828a016200023c565b93505060806200031089828a016200027d565b92505060a06200032389828a01620001bc565b9150509295509295509295565b7f4e487b7100000000000000000000000000000000000000000000000000000000600052602160045260246000fd5b60805160a05160c05160e051610100516101205161014051611400620003c860003960006107a1015260006106480152600061062501526000610604015260006105c80152600081816102b4015261039a0152600081816102da015261032e01526114006000f3fe6080604052600436106100a75760003560e01c806353a2c19a1161006457806353a2c19a146101895780635f1b0fd8146101b45780636b76a9dd146101df5780636e04ff0d1461020a578063e55ae4e814610248578063fd6673f514610285576100a7565b806309bc33a7146100ac5780631fe543e3146100d75780632cfcc53914610100578063320229eb1461010a5780634585e33b14610135578063473f1ddc1461015e575b600080fd5b3480156100b857600080fd5b506100c16102b0565b6040516100ce9190610b8a565b60405180910390f35b3480156100e357600080fd5b506100fe60048036038101906100f99190610d3e565b6102d8565b005b610108610398565b005b34801561011657600080fd5b5061011f610507565b60405161012c9190610b8a565b60405180910390f35b34801561014157600080fd5b5061015c60048036038101906101579190610df5565b610511565b005b34801561016a57600080fd5b50610173610701565b6040516101809190610e83565b60405180910390f35b34801561019557600080fd5b5061019e61072b565b6040516101ab9190610b8a565b60405180910390f35b3480156101c057600080fd5b506101c961073a565b6040516101d69190610b8a565b60405180910390f35b3480156101eb57600080fd5b506101f4610747565b6040516102019190610f15565b60405180910390f35b34801561021657600080fd5b50610231600480360381019061022c9190610fe5565b61075e565b60405161023f9291906110c8565b60405180910390f35b34801561025457600080fd5b5061026f600480360381019061026a91906110f8565b610846565b60405161027c9190610e83565b60405180910390f35b34801561029157600080fd5b5061029a61088d565b6040516102a79190610b8a565b60405180910390f35b60007f0000000000000000000000000000000000000000000000000000000000000000905090565b7f000000000000000000000000000000000000000000000000000000000000000073ffffffffffffffffffffffffffffffffffffffff163373ffffffffffffffffffffffffffffffffffffffff161461038a57337f00000000000000000000000000000000000000000000000000000000000000006040517f1cf993f4000000000000000000000000000000000000000000000000000000008152600401610381929190611125565b60405180910390fd5b6103948282610899565b5050565b7f00000000000000000000000000000000000000000000000000000000000000003410156103f2576040517fbd4e069500000000000000000000000000000000000000000000000000000000815260040160405180910390fd5b6000600181111561040657610405610e9e565b5b600160149054906101000a900460ff16600181111561042857610427610e9e565b5b1461045f576040517f1425571c00000000000000000000000000000000000000000000000000000000815260040160405180910390fd5b6000339080600181540180825580915050600190039060005260206000200160009091909190916101000a81548173ffffffffffffffffffffffffffffffffffffffff021916908373ffffffffffffffffffffffffffffffffffffffff1602179055503373ffffffffffffffffffffffffffffffffffffffff167f0805e1d667bddb8a95f0f09880cf94f403fb596ce79928d9f29b74203ba284d460405160405180910390a2565b6000600254905090565b600061052b6040518060200160405280600081525061075e565b5090508061059a5747600080549050600160149054906101000a900460ff16600181111561055c5761055b610e9e565b5b6040517f584327aa0000000000000000000000000000000000000000000000000000000081526004016105919392919061114e565b60405180910390fd5b60018060146101000a81548160ff021916908360018111156105bf576105be610e9e565b5b021790555060007f000000000000000000000000000000000000000000000000000000000000000073ffffffffffffffffffffffffffffffffffffffff16635d3b1d307f00000000000000000000000000000000000000000000000000000000000000007f000000000000000000000000000000000000000000000000000000000000000060037f000000000000000000000000000000000000000000000000000000000000000060016040518663ffffffff1660e01b81526004016106899594939291906111fd565b6020604051808303816000875af11580156106a8573d6000803e3d6000fd5b505050506040513d601f19601f820116820180604052508101906106cc9190611265565b9050807fcd6e45c8998311cab7e9d4385596cac867e20a0587194b954fa3a731c93ce78b60405160405180910390a250505050565b6000600160009054906101000a900473ffffffffffffffffffffffffffffffffffffffff16905090565b6000600163ffffffff16905090565b6000600361ffff16905090565b6000600160149054906101000a900460ff16905090565b600060606000600160149054906101000a900460ff16600181111561078657610785610e9e565b5b6000600181111561079a57610799610e9e565b5b14905060007f0000000000000000000000000000000000000000000000000000000000000000600254426107ce91906112c1565b119050600080600080549050119050600080471190508280156107ee5750835b80156107f75750805b80156108005750815b9550856040518060400160405280600381526020017f30783000000000000000000000000000000000000000000000000000000000008152509550955050505050915091565b600080828154811061085b5761085a6112f5565b5b9060005260206000200160009054906101000a900473ffffffffffffffffffffffffffffffffffffffff169050919050565b60008080549050905090565b60008080549050826000815181106108b4576108b36112f5565b5b60200260200101516108c69190611353565b905060008082815481106108dd576108dc6112f5565b5b9060005260206000200160009054906101000a900473ffffffffffffffffffffffffffffffffffffffff16905080600160006101000a81548173ffffffffffffffffffffffffffffffffffffffff021916908373ffffffffffffffffffffffffffffffffffffffff1602179055506000600160146101000a81548160ff0219169083600181111561097157610970610e9e565b5b0217905550600067ffffffffffffffff81111561099157610990610bfb565b5b6040519080825280602002602001820160405280156109bf5781602001602082028036833780820191505090505b50600090805190602001906109d5929190610aca565b504260028190555060008173ffffffffffffffffffffffffffffffffffffffff1647604051610a03906113b5565b60006040518083038185875af1925050503d8060008114610a40576040519150601f19603f3d011682016040523d82523d6000602084013e610a45565b606091505b5050905080610a80576040517fa1d04b3900000000000000000000000000000000000000000000000000000000815260040160405180910390fd5b8173ffffffffffffffffffffffffffffffffffffffff167f5b690ec4a06fe979403046eaeea5b3ce38524683c3001f662c8b5a829632f7df60405160405180910390a25050505050565b828054828255906000526020600020908101928215610b43579160200282015b82811115610b425782518260006101000a81548173ffffffffffffffffffffffffffffffffffffffff021916908373ffffffffffffffffffffffffffffffffffffffff16021790555091602001919060010190610aea565b5b509050610b509190610b54565b5090565b5b80821115610b6d576000816000905550600101610b55565b5090565b6000819050919050565b610b8481610b71565b82525050565b6000602082019050610b9f6000830184610b7b565b92915050565b6000604051905090565b600080fd5b600080fd5b610bc281610b71565b8114610bcd57600080fd5b50565b600081359050610bdf81610bb9565b92915050565b600080fd5b6000601f19601f8301169050919050565b7f4e487b7100000000000000000000000000000000000000000000000000000000600052604160045260246000fd5b610c3382610bea565b810181811067ffffffffffffffff82111715610c5257610c51610bfb565b5b80604052505050565b6000610c65610ba5565b9050610c718282610c2a565b919050565b600067ffffffffffffffff821115610c9157610c90610bfb565b5b602082029050602081019050919050565b600080fd5b6000610cba610cb584610c76565b610c5b565b90508083825260208201905060208402830185811115610cdd57610cdc610ca2565b5b835b81811015610d065780610cf28882610bd0565b845260208401935050602081019050610cdf565b5050509392505050565b600082601f830112610d2557610d24610be5565b5b8135610d35848260208601610ca7565b91505092915050565b60008060408385031215610d5557610d54610baf565b5b6000610d6385828601610bd0565b925050602083013567ffffffffffffffff811115610d8457610d83610bb4565b5b610d9085828601610d10565b9150509250929050565b600080fd5b60008083601f840112610db557610db4610be5565b5b8235905067ffffffffffffffff811115610dd257610dd1610d9a565b5b602083019150836001820283011115610dee57610ded610ca2565b5b9250929050565b60008060208385031215610e0c57610e0b610baf565b5b600083013567ffffffffffffffff811115610e2a57610e29610bb4565b5b610e3685828601610d9f565b92509250509250929050565b600073ffffffffffffffffffffffffffffffffffffffff82169050919050565b6000610e6d82610e42565b9050919050565b610e7d81610e62565b82525050565b6000602082019050610e986000830184610e74565b92915050565b7f4e487b7100000000000000000000000000000000000000000000000000000000600052602160045260246000fd5b60028110610ede57610edd610e9e565b5b50565b6000819050610eef82610ecd565b919050565b6000610eff82610ee1565b9050919050565b610f0f81610ef4565b82525050565b6000602082019050610f2a6000830184610f06565b92915050565b600080fd5b600067ffffffffffffffff821115610f5057610f4f610bfb565b5b610f5982610bea565b9050602081019050919050565b82818337600083830152505050565b6000610f88610f8384610f35565b610c5b565b905082815260208101848484011115610fa457610fa3610f30565b5b610faf848285610f66565b509392505050565b600082601f830112610fcc57610fcb610be5565b5b8135610fdc848260208601610f75565b91505092915050565b600060208284031215610ffb57610ffa610baf565b5b600082013567ffffffffffffffff81111561101957611018610bb4565b5b61102584828501610fb7565b91505092915050565b60008115159050919050565b6110438161102e565b82525050565b600081519050919050565b600082825260208201905092915050565b60005b83811015611083578082015181840152602081019050611068565b60008484015250505050565b600061109a82611049565b6110a48185611054565b93506110b4818560208601611065565b6110bd81610bea565b840191505092915050565b60006040820190506110dd600083018561103a565b81810360208301526110ef818461108f565b90509392505050565b60006020828403121561110e5761110d610baf565b5b600061111c84828501610bd0565b91505092915050565b600060408201905061113a6000830185610e74565b6111476020830184610e74565b9392505050565b60006060820190506111636000830186610b7b565b6111706020830185610b7b565b61117d6040830184610b7b565b949350505050565b6000819050919050565b61119881611185565b82525050565b600067ffffffffffffffff82169050919050565b6111bb8161119e565b82525050565b600061ffff82169050919050565b6111d8816111c1565b82525050565b600063ffffffff82169050919050565b6111f7816111de565b82525050565b600060a082019050611212600083018861118f565b61121f60208301876111b2565b61122c60408301866111cf565b61123960608301856111ee565b61124660808301846111ee565b9695505050505050565b60008151905061125f81610bb9565b92915050565b60006020828403121561127b5761127a610baf565b5b600061128984828501611250565b91505092915050565b7f4e487b7100000000000000000000000000000000000000000000000000000000600052601160045260246000fd5b60006112cc82610b71565b91506112d783610b71565b92508282039050818111156112ef576112ee611292565b5b92915050565b7f4e487b7100000000000000000000000000000000000000000000000000000000600052603260045260246000fd5b7f4e487b7100000000000000000000000000000000000000000000000000000000600052601260045260246000fd5b600061135e82610b71565b915061136983610b71565b92508261137957611378611324565b5b828206905092915050565b600081905092915050565b50565b600061139f600083611384565b91506113aa8261138f565b600082019050919050565b60006113c082611392565b915081905091905056fea2646970667358221220c5746db0b71a45b155954eb82f803b1fd5aeebdad3e6c796938ab71794a2e52b64736f6c63430008110033",
  "linkReferences": {},
  "deployedLinkReferences": {}
}